{
  "contractName": "NFTMarketPlace",
  "abi": [
    {
      "inputs": [],
      "stateMutability": "nonpayable",
      "type": "constructor"
    },
    {
      "anonymous": false,
      "inputs": [
        {
          "indexed": true,
          "internalType": "address",
          "name": "nftContract",
          "type": "address"
        },
        {
          "indexed": true,
          "internalType": "uint256",
          "name": "id",
          "type": "uint256"
        },
        {
          "indexed": false,
          "internalType": "uint256",
          "name": "tokenId",
          "type": "uint256"
        },
        {
          "indexed": false,
          "internalType": "address",
          "name": "owner",
          "type": "address"
        },
        {
          "indexed": false,
          "internalType": "address",
          "name": "seller",
          "type": "address"
        },
        {
          "indexed": false,
          "internalType": "uint256",
          "name": "price",
          "type": "uint256"
        },
        {
          "indexed": false,
          "internalType": "bool",
          "name": "sold",
          "type": "bool"
        }
      ],
      "name": "NftMerketItemCreated",
      "type": "event"
    },
    {
      "inputs": [],
      "name": "gettheMarketFees",
      "outputs": [
        {
          "internalType": "uint256",
          "name": "",
          "type": "uint256"
        }
      ],
      "stateMutability": "view",
      "type": "function",
      "constant": true
    },
    {
      "inputs": [
        {
          "internalType": "address",
          "name": "nftContract",
          "type": "address"
        },
        {
          "internalType": "uint256",
          "name": "tokenId",
          "type": "uint256"
        },
        {
          "internalType": "uint256",
          "name": "price",
          "type": "uint256"
        }
      ],
      "name": "createItemForSale",
      "outputs": [],
      "stateMutability": "payable",
      "type": "function",
      "payable": true
    },
    {
      "inputs": [
        {
          "internalType": "address",
          "name": "nftContract",
          "type": "address"
        },
        {
          "internalType": "uint256",
          "name": "nftItemId",
          "type": "uint256"
        }
      ],
      "name": "createMarketForSale",
      "outputs": [],
      "stateMutability": "payable",
      "type": "function",
      "payable": true
    },
    {
      "inputs": [],
      "name": "getMyItemCreated",
      "outputs": [
        {
          "components": [
            {
              "internalType": "address",
              "name": "nftContract",
              "type": "address"
            },
            {
              "internalType": "uint256",
              "name": "id",
              "type": "uint256"
            },
            {
              "internalType": "uint256",
              "name": "tokenId",
              "type": "uint256"
            },
            {
              "internalType": "address payable",
              "name": "owner",
              "type": "address"
            },
            {
              "internalType": "address payable",
              "name": "seller",
              "type": "address"
            },
            {
              "internalType": "uint256",
              "name": "price",
              "type": "uint256"
            },
            {
              "internalType": "bool",
              "name": "sold",
              "type": "bool"
            }
          ],
          "internalType": "struct NFTMarketPlace.NftMerketItem[]",
          "name": "",
          "type": "tuple[]"
        }
      ],
      "stateMutability": "view",
      "type": "function",
      "constant": true
    },
    {
      "inputs": [],
      "name": "getMyNFTPurchased",
      "outputs": [
        {
          "components": [
            {
              "internalType": "address",
              "name": "nftContract",
              "type": "address"
            },
            {
              "internalType": "uint256",
              "name": "id",
              "type": "uint256"
            },
            {
              "internalType": "uint256",
              "name": "tokenId",
              "type": "uint256"
            },
            {
              "internalType": "address payable",
              "name": "owner",
              "type": "address"
            },
            {
              "internalType": "address payable",
              "name": "seller",
              "type": "address"
            },
            {
              "internalType": "uint256",
              "name": "price",
              "type": "uint256"
            },
            {
              "internalType": "bool",
              "name": "sold",
              "type": "bool"
            }
          ],
          "internalType": "struct NFTMarketPlace.NftMerketItem[]",
          "name": "",
          "type": "tuple[]"
        }
      ],
      "stateMutability": "view",
      "type": "function",
      "constant": true
    },
    {
      "inputs": [],
      "name": "getAllUnsoldItems",
      "outputs": [
        {
          "components": [
            {
              "internalType": "address",
              "name": "nftContract",
              "type": "address"
            },
            {
              "internalType": "uint256",
              "name": "id",
              "type": "uint256"
            },
            {
              "internalType": "uint256",
              "name": "tokenId",
              "type": "uint256"
            },
            {
              "internalType": "address payable",
              "name": "owner",
              "type": "address"
            },
            {
              "internalType": "address payable",
              "name": "seller",
              "type": "address"
            },
            {
              "internalType": "uint256",
              "name": "price",
              "type": "uint256"
            },
            {
              "internalType": "bool",
              "name": "sold",
              "type": "bool"
            }
          ],
          "internalType": "struct NFTMarketPlace.NftMerketItem[]",
          "name": "",
          "type": "tuple[]"
        }
      ],
      "stateMutability": "view",
      "type": "function",
      "constant": true
    }
  ],
  "bytecode": "0x6080604052662386f26fc1000060015534801561001b57600080fd5b50600160008190555033600260006101000a81548173ffffffffffffffffffffffffffffffffffffffff021916908373ffffffffffffffffffffffffffffffffffffffff160217905550611a0a806100746000396000f3fe6080604052600436106100555760003560e01c806325135cbf1461005a578063446269e61461008557806357e9b6cc146100b05780639e31e655146100cc578063bca52442146100f7578063c7a5bc4e14610122575b600080fd5b34801561006657600080fd5b5061006f61013e565b60405161007c91906113f7565b60405180910390f35b34801561009157600080fd5b5061009a610408565b6040516100a791906113f7565b60405180910390f35b6100ca60048036038101906100c59190611476565b610756565b005b3480156100d857600080fd5b506100e1610a0f565b6040516100ee91906113f7565b60405180910390f35b34801561010357600080fd5b5061010c610d5d565b60405161011991906114c5565b60405180910390f35b61013c600480360381019061013791906114e0565b610d67565b005b6060600061014c600361117f565b9050600061015a600461117f565b610164600361117f565b61016e9190611562565b90506000808267ffffffffffffffff81111561018d5761018c611596565b5b6040519080825280602002602001820160405280156101c657816020015b6101b36111a3565b8152602001906001900390816101ab5790505b50905060005b848110156103fd57600073ffffffffffffffffffffffffffffffffffffffff16600560006001846101fd91906115c5565b815260200190815260200160002060030160009054906101000a900473ffffffffffffffffffffffffffffffffffffffff1673ffffffffffffffffffffffffffffffffffffffff1614156103ea57600060018261025a91906115c5565b90506000600560008381526020019081526020016000209050806040518060e00160405290816000820160009054906101000a900473ffffffffffffffffffffffffffffffffffffffff1673ffffffffffffffffffffffffffffffffffffffff1673ffffffffffffffffffffffffffffffffffffffff16815260200160018201548152602001600282015481526020016003820160009054906101000a900473ffffffffffffffffffffffffffffffffffffffff1673ffffffffffffffffffffffffffffffffffffffff1673ffffffffffffffffffffffffffffffffffffffff1681526020016004820160009054906101000a900473ffffffffffffffffffffffffffffffffffffffff1673ffffffffffffffffffffffffffffffffffffffff1673ffffffffffffffffffffffffffffffffffffffff168152602001600582015481526020016006820160009054906101000a900460ff1615151515815250508486815181106103cd576103cc61161b565b5b60200260200101819052506001856103e591906115c5565b945050505b80806103f59061164a565b9150506101cc565b508094505050505090565b60606000610416600361117f565b905060008060005b838110156104bf573373ffffffffffffffffffffffffffffffffffffffff166005600060018461044e91906115c5565b815260200190815260200160002060030160009054906101000a900473ffffffffffffffffffffffffffffffffffffffff1673ffffffffffffffffffffffffffffffffffffffff1614156104ac576001836104a991906115c5565b92505b80806104b79061164a565b91505061041e565b5060008267ffffffffffffffff8111156104dc576104db611596565b5b60405190808252806020026020018201604052801561051557816020015b6105026111a3565b8152602001906001900390816104fa5790505b50905060005b8481101561074b573373ffffffffffffffffffffffffffffffffffffffff166005600060018461054b91906115c5565b815260200190815260200160002060030160009054906101000a900473ffffffffffffffffffffffffffffffffffffffff1673ffffffffffffffffffffffffffffffffffffffff1614156107385760006001826105a891906115c5565b90506000600560008381526020019081526020016000209050806040518060e00160405290816000820160009054906101000a900473ffffffffffffffffffffffffffffffffffffffff1673ffffffffffffffffffffffffffffffffffffffff1673ffffffffffffffffffffffffffffffffffffffff16815260200160018201548152602001600282015481526020016003820160009054906101000a900473ffffffffffffffffffffffffffffffffffffffff1673ffffffffffffffffffffffffffffffffffffffff1673ffffffffffffffffffffffffffffffffffffffff1681526020016004820160009054906101000a900473ffffffffffffffffffffffffffffffffffffffff1673ffffffffffffffffffffffffffffffffffffffff1673ffffffffffffffffffffffffffffffffffffffff168152602001600582015481526020016006820160009054906101000a900460ff16151515158152505084868151811061071b5761071a61161b565b5b602002602001018190525060018561073391906115c5565b945050505b80806107439061164a565b91505061051b565b508094505050505090565b6002600054141561079c576040517f08c379a0000000000000000000000000000000000000000000000000000000008152600401610793906116f0565b60405180910390fd5b600260008190555060006005600083815260200190815260200160002060050154905060006005600084815260200190815260200160002060020154905081341461081c576040517f08c379a00000000000000000000000000000000000000000000000000000000081526004016108139061175c565b60405180910390fd5b6005600084815260200190815260200160002060040160009054906101000a900473ffffffffffffffffffffffffffffffffffffffff1673ffffffffffffffffffffffffffffffffffffffff166108fc349081150290604051600060405180830381858888f19350505050158015610898573d6000803e3d6000fd5b508373ffffffffffffffffffffffffffffffffffffffff166323b872dd3033846040518463ffffffff1660e01b81526004016108d69392919061178b565b600060405180830381600087803b1580156108f057600080fd5b505af1158015610904573d6000803e3d6000fd5b50505050336005600085815260200190815260200160002060030160006101000a81548173ffffffffffffffffffffffffffffffffffffffff021916908373ffffffffffffffffffffffffffffffffffffffff16021790555060016005600085815260200190815260200160002060060160006101000a81548160ff021916908315150217905550610996600461118d565b600260009054906101000a900473ffffffffffffffffffffffffffffffffffffffff1673ffffffffffffffffffffffffffffffffffffffff166108fc6001549081150290604051600060405180830381858888f19350505050158015610a00573d6000803e3d6000fd5b50505060016000819055505050565b60606000610a1d600361117f565b905060008060005b83811015610ac6573373ffffffffffffffffffffffffffffffffffffffff1660056000600184610a5591906115c5565b815260200190815260200160002060040160009054906101000a900473ffffffffffffffffffffffffffffffffffffffff1673ffffffffffffffffffffffffffffffffffffffff161415610ab357600183610ab091906115c5565b92505b8080610abe9061164a565b915050610a25565b5060008267ffffffffffffffff811115610ae357610ae2611596565b5b604051908082528060200260200182016040528015610b1c57816020015b610b096111a3565b815260200190600190039081610b015790505b50905060005b84811015610d52573373ffffffffffffffffffffffffffffffffffffffff1660056000600184610b5291906115c5565b815260200190815260200160002060040160009054906101000a900473ffffffffffffffffffffffffffffffffffffffff1673ffffffffffffffffffffffffffffffffffffffff161415610d3f576000600182610baf91906115c5565b90506000600560008381526020019081526020016000209050806040518060e00160405290816000820160009054906101000a900473ffffffffffffffffffffffffffffffffffffffff1673ffffffffffffffffffffffffffffffffffffffff1673ffffffffffffffffffffffffffffffffffffffff16815260200160018201548152602001600282015481526020016003820160009054906101000a900473ffffffffffffffffffffffffffffffffffffffff1673ffffffffffffffffffffffffffffffffffffffff1673ffffffffffffffffffffffffffffffffffffffff1681526020016004820160009054906101000a900473ffffffffffffffffffffffffffffffffffffffff1673ffffffffffffffffffffffffffffffffffffffff1673ffffffffffffffffffffffffffffffffffffffff168152602001600582015481526020016006820160009054906101000a900460ff161515151581525050848681518110610d2257610d2161161b565b5b6020026020010181905250600185610d3a91906115c5565b945050505b8080610d4a9061164a565b915050610b22565b508094505050505090565b6000600154905090565b60026000541415610dad576040517f08c379a0000000000000000000000000000000000000000000000000000000008152600401610da4906116f0565b60405180910390fd5b600260008190555060008111610df8576040517f08c379a0000000000000000000000000000000000000000000000000000000008152600401610def9061180e565b60405180910390fd5b60008211610e3b576040517f08c379a0000000000000000000000000000000000000000000000000000000008152600401610e329061187a565b60405180910390fd5b6001543414610e7f576040517f08c379a0000000000000000000000000000000000000000000000000000000008152600401610e76906118e6565b60405180910390fd5b600073ffffffffffffffffffffffffffffffffffffffff168373ffffffffffffffffffffffffffffffffffffffff161415610eef576040517f08c379a0000000000000000000000000000000000000000000000000000000008152600401610ee690611952565b60405180910390fd5b610ef9600361118d565b6000610f05600361117f565b90506040518060e001604052808573ffffffffffffffffffffffffffffffffffffffff168152602001828152602001848152602001600073ffffffffffffffffffffffffffffffffffffffff1681526020013373ffffffffffffffffffffffffffffffffffffffff168152602001838152602001600015158152506005600083815260200190815260200160002060008201518160000160006101000a81548173ffffffffffffffffffffffffffffffffffffffff021916908373ffffffffffffffffffffffffffffffffffffffff160217905550602082015181600101556040820151816002015560608201518160030160006101000a81548173ffffffffffffffffffffffffffffffffffffffff021916908373ffffffffffffffffffffffffffffffffffffffff16021790555060808201518160040160006101000a81548173ffffffffffffffffffffffffffffffffffffffff021916908373ffffffffffffffffffffffffffffffffffffffff16021790555060a0820151816005015560c08201518160060160006101000a81548160ff0219169083151502179055509050508373ffffffffffffffffffffffffffffffffffffffff166323b872dd3330866040518463ffffffff1660e01b81526004016110e69392919061178b565b600060405180830381600087803b15801561110057600080fd5b505af1158015611114573d6000803e3d6000fd5b50505050808473ffffffffffffffffffffffffffffffffffffffff167fc0949b7bee1a9850605ae4ddce98bc8465518f7638ede9269456ccbb5e0bd81385600033876000604051611169959493929190611981565b60405180910390a3506001600081905550505050565b600081600001549050919050565b6001816000016000828254019250508190555050565b6040518060e00160405280600073ffffffffffffffffffffffffffffffffffffffff1681526020016000815260200160008152602001600073ffffffffffffffffffffffffffffffffffffffff168152602001600073ffffffffffffffffffffffffffffffffffffffff168152602001600081526020016000151581525090565b600081519050919050565b600082825260208201905092915050565b6000819050602082019050919050565b600073ffffffffffffffffffffffffffffffffffffffff82169050919050565b600061127b82611250565b9050919050565b61128b81611270565b82525050565b6000819050919050565b6112a481611291565b82525050565b60006112b582611250565b9050919050565b6112c5816112aa565b82525050565b60008115159050919050565b6112e0816112cb565b82525050565b60e0820160008201516112fc6000850182611282565b50602082015161130f602085018261129b565b506040820151611322604085018261129b565b50606082015161133560608501826112bc565b50608082015161134860808501826112bc565b5060a082015161135b60a085018261129b565b5060c082015161136e60c08501826112d7565b50505050565b600061138083836112e6565b60e08301905092915050565b6000602082019050919050565b60006113a482611224565b6113ae818561122f565b93506113b983611240565b8060005b838110156113ea5781516113d18882611374565b97506113dc8361138c565b9250506001810190506113bd565b5085935050505092915050565b600060208201905081810360008301526114118184611399565b905092915050565b600080fd5b61142781611270565b811461143257600080fd5b50565b6000813590506114448161141e565b92915050565b61145381611291565b811461145e57600080fd5b50565b6000813590506114708161144a565b92915050565b6000806040838503121561148d5761148c611419565b5b600061149b85828601611435565b92505060206114ac85828601611461565b9150509250929050565b6114bf81611291565b82525050565b60006020820190506114da60008301846114b6565b92915050565b6000806000606084860312156114f9576114f8611419565b5b600061150786828701611435565b935050602061151886828701611461565b925050604061152986828701611461565b9150509250925092565b7f4e487b7100000000000000000000000000000000000000000000000000000000600052601160045260246000fd5b600061156d82611291565b915061157883611291565b92508282101561158b5761158a611533565b5b828203905092915050565b7f4e487b7100000000000000000000000000000000000000000000000000000000600052604160045260246000fd5b60006115d082611291565b91506115db83611291565b9250827fffffffffffffffffffffffffffffffffffffffffffffffffffffffffffffffff038211156116105761160f611533565b5b828201905092915050565b7f4e487b7100000000000000000000000000000000000000000000000000000000600052603260045260246000fd5b600061165582611291565b91507fffffffffffffffffffffffffffffffffffffffffffffffffffffffffffffffff82141561168857611687611533565b5b600182019050919050565b600082825260208201905092915050565b7f5265656e7472616e637947756172643a207265656e7472616e742063616c6c00600082015250565b60006116da601f83611693565b91506116e5826116a4565b602082019050919050565b60006020820190508181036000830152611709816116cd565b9050919050565b7f73686f756c642062757920746865207072696365206f66206974656d00000000600082015250565b6000611746601c83611693565b915061175182611710565b602082019050919050565b6000602082019050818103600083015261177581611739565b9050919050565b61178581611270565b82525050565b60006060820190506117a0600083018661177c565b6117ad602083018561177c565b6117ba60408301846114b6565b949350505050565b7f50726963652073686f756c64206265206d6f72655468616e2031000000000000600082015250565b60006117f8601a83611693565b9150611803826117c2565b602082019050919050565b60006020820190508181036000830152611827816117eb565b9050919050565b7f746f6b656e2049642073686f756c64206265206d6f72655468616e2031000000600082015250565b6000611864601d83611693565b915061186f8261182e565b602082019050919050565b6000602082019050818103600083015261189381611857565b9050919050565b7f546865204d61726b6574204665657320697320302e3031302045746865720000600082015250565b60006118d0601e83611693565b91506118db8261189a565b602082019050919050565b600060208201905081810360008301526118ff816118c3565b9050919050565b7f616464726573732073686f756c64206e6f7420626520657175616c2030783000600082015250565b600061193c601f83611693565b915061194782611906565b602082019050919050565b6000602082019050818103600083015261196b8161192f565b9050919050565b61197b816112cb565b82525050565b600060a08201905061199660008301886114b6565b6119a3602083018761177c565b6119b0604083018661177c565b6119bd60608301856114b6565b6119ca6080830184611972565b969550505050505056fea26469706673582212205cf875f370ca5ad45e286553612fa925a077acafd91b01efa7b13a06431ad5b464736f6c63430008090033",
  "immutableReferences": {},
  "source": "// SPDX-License-Identifier: MIT\npragma solidity >=0.4.22 <0.9.0;\nimport \"@openzeppelin/contracts/utils/Counters.sol\";\nimport \"@openzeppelin/contracts/token/ERC721/ERC721.sol\";\nimport \"@openzeppelin/contracts/security/ReentrancyGuard.sol\";\n\ncontract NFTMarketPlace is ReentrancyGuard {\n    uint256 marketFees = 0.010 ether;\n    address payable owner;\n    using Counters for Counters.Counter;\n    Counters.Counter private itemId;\n    Counters.Counter private itemsSold;\n\n     constructor(){\n         owner = payable(msg.sender);\n     }\n\n    struct NftMerketItem{\n        address nftContract;\n        uint256 id;\n        uint256 tokenId;\n        address payable owner;\n        address  payable seller;\n        uint256 price;\n        bool sold;\n    }\n\n    event NftMerketItemCreated(\n        address  indexed nftContract,\n        uint256 indexed id,\n        uint256 tokenId,\n        address  owner,\n        address  seller,\n        uint256 price,\n        bool sold\n        );\n   \n    function gettheMarketFees()public view returns(uint256){\n        return marketFees;\n    }\n    mapping(uint256=>NftMerketItem) private idForMarketItem;\n    function createItemForSale(address nftContract,uint256 tokenId,uint256 price)public payable nonReentrant {\n        require(price >0,\"Price should be moreThan 1\");\n        require(tokenId >0,\"token Id should be moreThan 1\");\n        require(msg.value == marketFees,\"The Market Fees is 0.010 Ether\");\n        require(nftContract != address(0),\"address should not be equal 0x0\");\n        itemId.increment();\n        uint256 id = itemId.current();\n\n        idForMarketItem[id]= NftMerketItem(\n            nftContract,\n            id,\n            tokenId,\n            payable (address (0)),\n            payable(msg.sender),\n            price,\n            false\n        );\n        IERC721(nftContract).transferFrom(msg.sender, address(this), tokenId);\n        emit NftMerketItemCreated(nftContract, id, tokenId, address(0), msg.sender, price, false);\n    }\n    //Create Maket\n\n    function createMarketForSale(address nftContract,uint256 nftItemId) public payable nonReentrant {\n        uint256 price = idForMarketItem[nftItemId].price;\n        uint256 tokenId = idForMarketItem[nftItemId].tokenId;\n        require(msg.value == price,\"should buy the price of item\");\n        idForMarketItem[nftItemId].seller.transfer(msg.value);\n        IERC721(nftContract).transferFrom(address(this), msg.sender, tokenId); //buy\n        idForMarketItem[nftItemId].owner = payable(msg.sender);\n        idForMarketItem[nftItemId].sold =  true;\n        itemsSold.increment();\n        payable(owner).transfer(marketFees);\n    }\n\n    function getMyItemCreated() public view returns(NftMerketItem[] memory){\n        uint256 totalItemCount = itemId.current(); \n        uint myItemCount=0;//10\n        uint myCurrentIndex =0;\n\n        for(uint i = 0;i<totalItemCount;i++){\n            if(idForMarketItem[i+1].seller == msg.sender){\n                myItemCount+=1;\n            }\n        }\n        NftMerketItem [] memory nftItems = new NftMerketItem[](myItemCount); //list[3]\n        for(uint i = 0;i<totalItemCount;i++){\n            if(idForMarketItem[i+1].seller==msg.sender){      //[1,2,3,4,5]\n            uint currentId = i+1;\n                NftMerketItem storage  currentItem = idForMarketItem[currentId];\n                nftItems[myCurrentIndex] = currentItem;\n                myCurrentIndex +=1;\n                \n            }\n        }\n        return nftItems;\n    }\n\n    //Create My purchased Nft Item\n    function getMyNFTPurchased() public view returns(NftMerketItem[] memory){\n        uint256 totalItemCount = itemId.current(); \n        uint myItemCount=0;//10\n        uint myCurrentIndex =0;\n        for(uint i = 0;i<totalItemCount;i++){\n            if(idForMarketItem[i + 1 ].owner == msg.sender){\n                myItemCount+=1;\n            }\n        }\n        NftMerketItem [] memory nftItems = new NftMerketItem[](myItemCount); //list[3]\n        for(uint i = 0;i<totalItemCount;i++){\n            if(idForMarketItem[i+1].owner== msg.sender){      //[1,2,3,4,5]\n            uint currentId = i+1;\n                NftMerketItem storage  currentItem = idForMarketItem[currentId];\n                nftItems[myCurrentIndex] = currentItem;\n                myCurrentIndex +=1;\n            }\n        }\n        return nftItems;\n    }\n\n    //Fetch  all unsold nft items\n    function getAllUnsoldItems()public view returns (NftMerketItem[] memory){\n        uint256 totalItemCount = itemId.current(); \n        uint myItemCount= itemId.current() - itemsSold.current();\n        uint myCurrentIndex =0;\n        NftMerketItem [] memory nftItems = new NftMerketItem[](myItemCount); //list[3]\n\n        for(uint i = 0;i<totalItemCount;i++){\n            if(idForMarketItem[i+1].owner== address(0)){      //[1,2,3,4,5]\n            uint currentId = i+1;\n                NftMerketItem storage  currentItem = idForMarketItem[currentId];\n                nftItems[myCurrentIndex] = currentItem;\n                myCurrentIndex +=1;        \n            }\n        }\n        return nftItems;\n    }\n}",
  "sourcePath": "/Volumes/Work/Work/CAYC/Marketplace/smart contract/contracts/NFTMarketPlace.sol",
  "compiler": {
    "name": "solc",
    "version": "0.8.9+commit.e5eed63a.Emscripten.clang"
  },
  "schemaVersion": "3.4.3",
  "updatedAt": "2022-10-20T12:19:55.336Z",
  "networkType": "ethereum",
  "devdoc": {
    "kind": "dev",
    "methods": {},
    "version": 1
  },
  "userdoc": {
    "kind": "user",
    "methods": {},
    "version": 1
  }
}